:03088B0002083A26
:0E087100C2A0120862D2A07F507EC3020866A9
:10080000C2A0D2A7120862C2A1D2A0120862C2A2DC
:10081000D2A1120862C2A3D2A2120862C2A4D2A3B9
:10082000120862C2A5D2A4120862C2A6D2A51208FA
:0A08300062C2A7D2A612086280C6B9
:10083A00E4F50875A0FEE4F508D3E508940774808A
:10084A00948050F2AFA07801EF08800123D8FDF51B
:08085A00A0120862050880E10C
:040862007F507EC382
:0B086600EF1FAC0670011E4C70F62264
:0300000002087F74
:0C087F00787FE4F6D8FD75810802088B34
:00000001FF
